{
  "_format": "hh-sol-artifact-1",
  "contractName": "Token",
  "sourceName": "contracts/Token.sol",
  "abi": [
    {
      "anonymous": false,
      "inputs": [
        {
          "indexed": true,
          "internalType": "address",
          "name": "owner",
          "type": "address"
        },
        {
          "indexed": true,
          "internalType": "address",
          "name": "approved",
          "type": "address"
        },
        {
          "indexed": true,
          "internalType": "uint256",
          "name": "tokenId",
          "type": "uint256"
        }
      ],
      "name": "Approval",
      "type": "event"
    },
    {
      "anonymous": false,
      "inputs": [
        {
          "indexed": true,
          "internalType": "address",
          "name": "owner",
          "type": "address"
        },
        {
          "indexed": true,
          "internalType": "address",
          "name": "operator",
          "type": "address"
        },
        {
          "indexed": false,
          "internalType": "bool",
          "name": "approved",
          "type": "bool"
        }
      ],
      "name": "ApprovalForAll",
      "type": "event"
    },
    {
      "anonymous": false,
      "inputs": [
        {
          "indexed": false,
          "internalType": "address",
          "name": "account",
          "type": "address"
        }
      ],
      "name": "Paused",
      "type": "event"
    },
    {
      "anonymous": false,
      "inputs": [
        {
          "indexed": true,
          "internalType": "bytes32",
          "name": "role",
          "type": "bytes32"
        },
        {
          "indexed": true,
          "internalType": "bytes32",
          "name": "previousAdminRole",
          "type": "bytes32"
        },
        {
          "indexed": true,
          "internalType": "bytes32",
          "name": "newAdminRole",
          "type": "bytes32"
        }
      ],
      "name": "RoleAdminChanged",
      "type": "event"
    },
    {
      "anonymous": false,
      "inputs": [
        {
          "indexed": true,
          "internalType": "bytes32",
          "name": "role",
          "type": "bytes32"
        },
        {
          "indexed": true,
          "internalType": "address",
          "name": "account",
          "type": "address"
        },
        {
          "indexed": true,
          "internalType": "address",
          "name": "sender",
          "type": "address"
        }
      ],
      "name": "RoleGranted",
      "type": "event"
    },
    {
      "anonymous": false,
      "inputs": [
        {
          "indexed": true,
          "internalType": "bytes32",
          "name": "role",
          "type": "bytes32"
        },
        {
          "indexed": true,
          "internalType": "address",
          "name": "account",
          "type": "address"
        },
        {
          "indexed": true,
          "internalType": "address",
          "name": "sender",
          "type": "address"
        }
      ],
      "name": "RoleRevoked",
      "type": "event"
    },
    {
      "anonymous": false,
      "inputs": [
        {
          "indexed": true,
          "internalType": "address",
          "name": "from",
          "type": "address"
        },
        {
          "indexed": true,
          "internalType": "address",
          "name": "to",
          "type": "address"
        },
        {
          "indexed": true,
          "internalType": "uint256",
          "name": "tokenId",
          "type": "uint256"
        }
      ],
      "name": "Transfer",
      "type": "event"
    },
    {
      "anonymous": false,
      "inputs": [
        {
          "indexed": false,
          "internalType": "address",
          "name": "account",
          "type": "address"
        }
      ],
      "name": "Unpaused",
      "type": "event"
    },
    {
      "inputs": [],
      "name": "DEFAULT_ADMIN_ROLE",
      "outputs": [
        {
          "internalType": "bytes32",
          "name": "",
          "type": "bytes32"
        }
      ],
      "stateMutability": "view",
      "type": "function"
    },
    {
      "inputs": [],
      "name": "MINTER_ROLE",
      "outputs": [
        {
          "internalType": "bytes32",
          "name": "",
          "type": "bytes32"
        }
      ],
      "stateMutability": "view",
      "type": "function"
    },
    {
      "inputs": [],
      "name": "PAUSER_ROLE",
      "outputs": [
        {
          "internalType": "bytes32",
          "name": "",
          "type": "bytes32"
        }
      ],
      "stateMutability": "view",
      "type": "function"
    },
    {
      "inputs": [
        {
          "internalType": "address",
          "name": "to",
          "type": "address"
        },
        {
          "internalType": "uint256",
          "name": "tokenId",
          "type": "uint256"
        }
      ],
      "name": "approve",
      "outputs": [],
      "stateMutability": "nonpayable",
      "type": "function"
    },
    {
      "inputs": [
        {
          "internalType": "address",
          "name": "owner",
          "type": "address"
        }
      ],
      "name": "balanceOf",
      "outputs": [
        {
          "internalType": "uint256",
          "name": "",
          "type": "uint256"
        }
      ],
      "stateMutability": "view",
      "type": "function"
    },
    {
      "inputs": [],
      "name": "baseURI",
      "outputs": [
        {
          "internalType": "string",
          "name": "",
          "type": "string"
        }
      ],
      "stateMutability": "view",
      "type": "function"
    },
    {
      "inputs": [
        {
          "internalType": "uint256",
          "name": "tokenId",
          "type": "uint256"
        }
      ],
      "name": "burn",
      "outputs": [],
      "stateMutability": "nonpayable",
      "type": "function"
    },
    {
      "inputs": [
        {
          "internalType": "uint256",
          "name": "tokenId",
          "type": "uint256"
        }
      ],
      "name": "getApproved",
      "outputs": [
        {
          "internalType": "address",
          "name": "",
          "type": "address"
        }
      ],
      "stateMutability": "view",
      "type": "function"
    },
    {
      "inputs": [
        {
          "internalType": "bytes32",
          "name": "role",
          "type": "bytes32"
        }
      ],
      "name": "getRoleAdmin",
      "outputs": [
        {
          "internalType": "bytes32",
          "name": "",
          "type": "bytes32"
        }
      ],
      "stateMutability": "view",
      "type": "function"
    },
    {
      "inputs": [
        {
          "internalType": "bytes32",
          "name": "role",
          "type": "bytes32"
        },
        {
          "internalType": "uint256",
          "name": "index",
          "type": "uint256"
        }
      ],
      "name": "getRoleMember",
      "outputs": [
        {
          "internalType": "address",
          "name": "",
          "type": "address"
        }
      ],
      "stateMutability": "view",
      "type": "function"
    },
    {
      "inputs": [
        {
          "internalType": "bytes32",
          "name": "role",
          "type": "bytes32"
        }
      ],
      "name": "getRoleMemberCount",
      "outputs": [
        {
          "internalType": "uint256",
          "name": "",
          "type": "uint256"
        }
      ],
      "stateMutability": "view",
      "type": "function"
    },
    {
      "inputs": [
        {
          "internalType": "bytes32",
          "name": "role",
          "type": "bytes32"
        },
        {
          "internalType": "address",
          "name": "account",
          "type": "address"
        }
      ],
      "name": "grantRole",
      "outputs": [],
      "stateMutability": "nonpayable",
      "type": "function"
    },
    {
      "inputs": [
        {
          "internalType": "bytes32",
          "name": "role",
          "type": "bytes32"
        },
        {
          "internalType": "address",
          "name": "account",
          "type": "address"
        }
      ],
      "name": "hasRole",
      "outputs": [
        {
          "internalType": "bool",
          "name": "",
          "type": "bool"
        }
      ],
      "stateMutability": "view",
      "type": "function"
    },
    {
      "inputs": [
        {
          "internalType": "string",
          "name": "name",
          "type": "string"
        },
        {
          "internalType": "string",
          "name": "symbol",
          "type": "string"
        },
        {
          "internalType": "string",
          "name": "baseTokenURI",
          "type": "string"
        }
      ],
      "name": "initialize",
      "outputs": [],
      "stateMutability": "nonpayable",
      "type": "function"
    },
    {
      "inputs": [
        {
          "internalType": "address",
          "name": "owner",
          "type": "address"
        },
        {
          "internalType": "address",
          "name": "operator",
          "type": "address"
        }
      ],
      "name": "isApprovedForAll",
      "outputs": [
        {
          "internalType": "bool",
          "name": "",
          "type": "bool"
        }
      ],
      "stateMutability": "view",
      "type": "function"
    },
    {
      "inputs": [
        {
          "internalType": "address",
          "name": "to",
          "type": "address"
        }
      ],
      "name": "mint",
      "outputs": [],
      "stateMutability": "nonpayable",
      "type": "function"
    },
    {
      "inputs": [],
      "name": "name",
      "outputs": [
        {
          "internalType": "string",
          "name": "",
          "type": "string"
        }
      ],
      "stateMutability": "view",
      "type": "function"
    },
    {
      "inputs": [
        {
          "internalType": "uint256",
          "name": "tokenId",
          "type": "uint256"
        }
      ],
      "name": "ownerOf",
      "outputs": [
        {
          "internalType": "address",
          "name": "",
          "type": "address"
        }
      ],
      "stateMutability": "view",
      "type": "function"
    },
    {
      "inputs": [],
      "name": "pause",
      "outputs": [],
      "stateMutability": "nonpayable",
      "type": "function"
    },
    {
      "inputs": [],
      "name": "paused",
      "outputs": [
        {
          "internalType": "bool",
          "name": "",
          "type": "bool"
        }
      ],
      "stateMutability": "view",
      "type": "function"
    },
    {
      "inputs": [
        {
          "internalType": "bytes32",
          "name": "role",
          "type": "bytes32"
        },
        {
          "internalType": "address",
          "name": "account",
          "type": "address"
        }
      ],
      "name": "renounceRole",
      "outputs": [],
      "stateMutability": "nonpayable",
      "type": "function"
    },
    {
      "inputs": [
        {
          "internalType": "bytes32",
          "name": "role",
          "type": "bytes32"
        },
        {
          "internalType": "address",
          "name": "account",
          "type": "address"
        }
      ],
      "name": "revokeRole",
      "outputs": [],
      "stateMutability": "nonpayable",
      "type": "function"
    },
    {
      "inputs": [
        {
          "internalType": "address",
          "name": "from",
          "type": "address"
        },
        {
          "internalType": "address",
          "name": "to",
          "type": "address"
        },
        {
          "internalType": "uint256",
          "name": "tokenId",
          "type": "uint256"
        }
      ],
      "name": "safeTransferFrom",
      "outputs": [],
      "stateMutability": "nonpayable",
      "type": "function"
    },
    {
      "inputs": [
        {
          "internalType": "address",
          "name": "from",
          "type": "address"
        },
        {
          "internalType": "address",
          "name": "to",
          "type": "address"
        },
        {
          "internalType": "uint256",
          "name": "tokenId",
          "type": "uint256"
        },
        {
          "internalType": "bytes",
          "name": "_data",
          "type": "bytes"
        }
      ],
      "name": "safeTransferFrom",
      "outputs": [],
      "stateMutability": "nonpayable",
      "type": "function"
    },
    {
      "inputs": [
        {
          "internalType": "address",
          "name": "operator",
          "type": "address"
        },
        {
          "internalType": "bool",
          "name": "approved",
          "type": "bool"
        }
      ],
      "name": "setApprovalForAll",
      "outputs": [],
      "stateMutability": "nonpayable",
      "type": "function"
    },
    {
      "inputs": [
        {
          "internalType": "bytes4",
          "name": "interfaceId",
          "type": "bytes4"
        }
      ],
      "name": "supportsInterface",
      "outputs": [
        {
          "internalType": "bool",
          "name": "",
          "type": "bool"
        }
      ],
      "stateMutability": "view",
      "type": "function"
    },
    {
      "inputs": [],
      "name": "symbol",
      "outputs": [
        {
          "internalType": "string",
          "name": "",
          "type": "string"
        }
      ],
      "stateMutability": "view",
      "type": "function"
    },
    {
      "inputs": [
        {
          "internalType": "uint256",
          "name": "index",
          "type": "uint256"
        }
      ],
      "name": "tokenByIndex",
      "outputs": [
        {
          "internalType": "uint256",
          "name": "",
          "type": "uint256"
        }
      ],
      "stateMutability": "view",
      "type": "function"
    },
    {
      "inputs": [
        {
          "internalType": "address",
          "name": "owner",
          "type": "address"
        },
        {
          "internalType": "uint256",
          "name": "index",
          "type": "uint256"
        }
      ],
      "name": "tokenOfOwnerByIndex",
      "outputs": [
        {
          "internalType": "uint256",
          "name": "",
          "type": "uint256"
        }
      ],
      "stateMutability": "view",
      "type": "function"
    },
    {
      "inputs": [
        {
          "internalType": "uint256",
          "name": "tokenId",
          "type": "uint256"
        }
      ],
      "name": "tokenURI",
      "outputs": [
        {
          "internalType": "string",
          "name": "",
          "type": "string"
        }
      ],
      "stateMutability": "view",
      "type": "function"
    },
    {
      "inputs": [
        {
          "internalType": "address",
          "name": "_owner",
          "type": "address"
        }
      ],
      "name": "tokensOfOwner",
      "outputs": [
        {
          "internalType": "uint256[]",
          "name": "ownerTokens",
          "type": "uint256[]"
        }
      ],
      "stateMutability": "view",
      "type": "function"
    },
    {
      "inputs": [],
      "name": "totalSupply",
      "outputs": [
        {
          "internalType": "uint256",
          "name": "",
          "type": "uint256"
        }
      ],
      "stateMutability": "view",
      "type": "function"
    },
    {
      "inputs": [
        {
          "internalType": "address",
          "name": "from",
          "type": "address"
        },
        {
          "internalType": "address",
          "name": "to",
          "type": "address"
        },
        {
          "internalType": "uint256",
          "name": "tokenId",
          "type": "uint256"
        }
      ],
      "name": "transferFrom",
      "outputs": [],
      "stateMutability": "nonpayable",
      "type": "function"
    },
    {
      "inputs": [],
      "name": "unpause",
      "outputs": [],
      "stateMutability": "nonpayable",
      "type": "function"
    }
  ],
  "bytecode": "0x608060405234801561001057600080fd5b50614c1c806100206000396000f3fe608060405234801561001057600080fd5b50600436106102065760003560e01c80636c0360eb1161011a578063a22cb465116100ad578063ca15c8731161007c578063ca15c87314610dd1578063d539139314610e13578063d547741f14610e31578063e63ab1e914610e7f578063e985e9c514610e9d57610206565b8063a22cb465146109ec578063a6487c5314610a3c578063b88d4fde14610c25578063c87b56dd14610d2a57610206565b80639010d07c116100e95780639010d07c1461088557806391d14854146108e757806395d89b411461094b578063a217fddf146109ce57610206565b80636c0360eb1461070757806370a082311461078a5780638456cb59146107e25780638462151c146107ec57610206565b80632f745c591161019d57806342966c681161016c57806342966c68146105db5780634f6ccce7146106095780635c975abb1461064b5780636352211e1461066b5780636a627842146106c357610206565b80632f745c59146104b357806336568abe146105155780633f4ba83a1461056357806342842e0e1461056d57610206565b806318160ddd116101d957806318160ddd1461039757806323b872dd146103b5578063248a9ca3146104235780632f2ff15d1461046557610206565b806301ffc9a71461020b57806306fdde031461026e578063081812fc146102f1578063095ea7b314610349575b600080fd5b6102566004803603602081101561022157600080fd5b8101908080357bffffffffffffffffffffffffffffffffffffffffffffffffffffffff19169060200190929190505050610f17565b60405180821515815260200191505060405180910390f35b610276610f7f565b6040518080602001828103825283818151815260200191508051906020019080838360005b838110156102b657808201518184015260208101905061029b565b50505050905090810190601f1680156102e35780820380516001836020036101000a031916815260200191505b509250505060405180910390f35b61031d6004803603602081101561030757600080fd5b8101908080359060200190929190505050611021565b604051808273ffffffffffffffffffffffffffffffffffffffff16815260200191505060405180910390f35b6103956004803603604081101561035f57600080fd5b81019080803573ffffffffffffffffffffffffffffffffffffffff169060200190929190803590602001909291905050506110bc565b005b61039f611200565b6040518082815260200191505060405180910390f35b610421600480360360608110156103cb57600080fd5b81019080803573ffffffffffffffffffffffffffffffffffffffff169060200190929190803573ffffffffffffffffffffffffffffffffffffffff16906020019092919080359060200190929190505050611211565b005b61044f6004803603602081101561043957600080fd5b8101908080359060200190929190505050611287565b6040518082815260200191505060405180910390f35b6104b16004803603604081101561047b57600080fd5b8101908080359060200190929190803573ffffffffffffffffffffffffffffffffffffffff1690602001909291905050506112a7565b005b6104ff600480360360408110156104c957600080fd5b81019080803573ffffffffffffffffffffffffffffffffffffffff16906020019092919080359060200190929190505050611331565b6040518082815260200191505060405180910390f35b6105616004803603604081101561052b57600080fd5b8101908080359060200190929190803573ffffffffffffffffffffffffffffffffffffffff16906020019092919050505061138c565b005b61056b611425565b005b6105d96004803603606081101561058357600080fd5b81019080803573ffffffffffffffffffffffffffffffffffffffff169060200190929190803573ffffffffffffffffffffffffffffffffffffffff169060200190929190803590602001909291905050506114b5565b005b610607600480360360208110156105f157600080fd5b81019080803590602001909291905050506114d5565b005b6106356004803603602081101561061f57600080fd5b8101908080359060200190929190505050611547565b6040518082815260200191505060405180910390f35b61065361156a565b60405180821515815260200191505060405180910390f35b6106976004803603602081101561068157600080fd5b8101908080359060200190929190505050611581565b604051808273ffffffffffffffffffffffffffffffffffffffff16815260200191505060405180910390f35b610705600480360360208110156106d957600080fd5b81019080803573ffffffffffffffffffffffffffffffffffffffff1690602001909291905050506115b8565b005b61070f611660565b6040518080602001828103825283818151815260200191508051906020019080838360005b8381101561074f578082015181840152602081019050610734565b50505050905090810190601f16801561077c5780820380516001836020036101000a031916815260200191505b509250505060405180910390f35b6107cc600480360360208110156107a057600080fd5b81019080803573ffffffffffffffffffffffffffffffffffffffff169060200190929190505050611702565b6040518082815260200191505060405180910390f35b6107ea6117d7565b005b61082e6004803603602081101561080257600080fd5b81019080803573ffffffffffffffffffffffffffffffffffffffff169060200190929190505050611867565b6040518080602001828103825283818151815260200191508051906020019060200280838360005b83811015610871578082015181840152602081019050610856565b505050509050019250505060405180910390f35b6108bb6004803603604081101561089b57600080fd5b8101908080359060200190929190803590602001909291905050506119ab565b604051808273ffffffffffffffffffffffffffffffffffffffff16815260200191505060405180910390f35b610933600480360360408110156108fd57600080fd5b8101908080359060200190929190803573ffffffffffffffffffffffffffffffffffffffff1690602001909291905050506119dd565b60405180821515815260200191505060405180910390f35b610953611a0f565b6040518080602001828103825283818151815260200191508051906020019080838360005b83811015610993578082015181840152602081019050610978565b50505050905090810190601f1680156109c05780820380516001836020036101000a031916815260200191505b509250505060405180910390f35b6109d6611ab1565b6040518082815260200191505060405180910390f35b610a3a60048036036040811015610a0257600080fd5b81019080803573ffffffffffffffffffffffffffffffffffffffff169060200190929190803515159060200190929190505050611ab8565b005b610c2360048036036060811015610a5257600080fd5b8101908080359060200190640100000000811115610a6f57600080fd5b820183602082011115610a8157600080fd5b80359060200191846001830284011164010000000083111715610aa357600080fd5b91908080601f016020809104026020016040519081016040528093929190818152602001838380828437600081840152601f19601f82011690508083019250505050505050919291929080359060200190640100000000811115610b0657600080fd5b820183602082011115610b1857600080fd5b80359060200191846001830284011164010000000083111715610b3a57600080fd5b91908080601f016020809104026020016040519081016040528093929190818152602001838380828437600081840152601f19601f82011690508083019250505050505050919291929080359060200190640100000000811115610b9d57600080fd5b820183602082011115610baf57600080fd5b80359060200191846001830284011164010000000083111715610bd157600080fd5b91908080601f016020809104026020016040519081016040528093929190818152602001838380828437600081840152601f19601f820116905080830192505050505050509192919290505050611c6e565b005b610d2860048036036080811015610c3b57600080fd5b81019080803573ffffffffffffffffffffffffffffffffffffffff169060200190929190803573ffffffffffffffffffffffffffffffffffffffff1690602001909291908035906020019092919080359060200190640100000000811115610ca257600080fd5b820183602082011115610cb457600080fd5b80359060200191846001830284011164010000000083111715610cd657600080fd5b91908080601f016020809104026020016040519081016040528093929190818152602001838380828437600081840152601f19601f820116905080830192505050505050509192919290505050611d7a565b005b610d5660048036036020811015610d4057600080fd5b8101908080359060200190929190505050611df2565b6040518080602001828103825283818151815260200191508051906020019080838360005b83811015610d96578082015181840152602081019050610d7b565b50505050905090810190601f168015610dc35780820380516001836020036101000a031916815260200191505b509250505060405180910390f35b610dfd60048036036020811015610de757600080fd5b81019080803590602001909291905050506120c3565b6040518082815260200191505060405180910390f35b610e1b6120ea565b6040518082815260200191505060405180910390f35b610e7d60048036036040811015610e4757600080fd5b8101908080359060200190929190803573ffffffffffffffffffffffffffffffffffffffff16906020019092919050505061210e565b005b610e87612198565b6040518082815260200191505060405180910390f35b610eff60048036036040811015610eb357600080fd5b81019080803573ffffffffffffffffffffffffffffffffffffffff169060200190929190803573ffffffffffffffffffffffffffffffffffffffff1690602001909291905050506121bc565b60405180821515815260200191505060405180910390f35b600060656000837bffffffffffffffffffffffffffffffffffffffffffffffffffffffff19167bffffffffffffffffffffffffffffffffffffffffffffffffffffffff1916815260200190815260200160002060009054906101000a900460ff169050919050565b6060609c8054600181600116156101000203166002900480601f0160208091040260200160405190810160405280929190818152602001828054600181600116156101000203166002900480156110175780601f10610fec57610100808354040283529160200191611017565b820191906000526020600020905b815481529060010190602001808311610ffa57829003601f168201915b5050505050905090565b600061102c82612250565b611081576040517f08c379a000000000000000000000000000000000000000000000000000000000815260040180806020018281038252602c815260200180614a35602c913960400191505060405180910390fd5b609a600083815260200190815260200160002060009054906101000a900473ffffffffffffffffffffffffffffffffffffffff169050919050565b60006110c782611581565b90508073ffffffffffffffffffffffffffffffffffffffff168373ffffffffffffffffffffffffffffffffffffffff16141561114e576040517f08c379a0000000000000000000000000000000000000000000000000000000008152600401808060200182810382526021815260200180614ab96021913960400191505060405180910390fd5b8073ffffffffffffffffffffffffffffffffffffffff1661116d61226d565b73ffffffffffffffffffffffffffffffffffffffff16148061119c575061119b8161119661226d565b6121bc565b5b6111f1576040517f08c379a000000000000000000000000000000000000000000000000000000000815260040180806020018281038252603881526020018061495a6038913960400191505060405180910390fd5b6111fb8383612275565b505050565b600061120c609861232e565b905090565b61122261121c61226d565b82612343565b611277576040517f08c379a0000000000000000000000000000000000000000000000000000000008152600401808060200182810382526031815260200180614ada6031913960400191505060405180910390fd5b611282838383612437565b505050565b600060336000838152602001908152602001600020600201549050919050565b6112ce60336000848152602001908152602001600020600201546112c961226d565b6119dd565b611323576040517f08c379a000000000000000000000000000000000000000000000000000000000815260040180806020018281038252602f815260200180614815602f913960400191505060405180910390fd5b61132d828261267a565b5050565b600061138482609760008673ffffffffffffffffffffffffffffffffffffffff1673ffffffffffffffffffffffffffffffffffffffff16815260200190815260200160002061270e90919063ffffffff16565b905092915050565b61139461226d565b73ffffffffffffffffffffffffffffffffffffffff168173ffffffffffffffffffffffffffffffffffffffff1614611417576040517f08c379a000000000000000000000000000000000000000000000000000000000815260040180806020018281038252602f815260200180614bb8602f913960400191505060405180910390fd5b6114218282612728565b5050565b6114567f65d7a28e3265b37a6474929f336521b332c1681b933f6cb9f3376673440d862a61145161226d565b6119dd565b6114ab576040517f08c379a0000000000000000000000000000000000000000000000000000000008152600401808060200182810382526040815260200180614b786040913960400191505060405180910390fd5b6114b36127bc565b565b6114d083838360405180602001604052806000815250611d7a565b505050565b6114e66114e061226d565b82612343565b61153b576040517f08c379a0000000000000000000000000000000000000000000000000000000008152600401808060200182810382526030815260200180614b486030913960400191505060405180910390fd5b611544816128a7565b50565b60008061155e8360986129e190919063ffffffff16565b50905080915050919050565b600060fb60009054906101000a900460ff16905090565b60006115b1826040518060600160405280602981526020016149bc602991396098612a0d9092919063ffffffff16565b9050919050565b6115e97f9f2df0fed2c77648de5860a4cc508cd0818c85b8b8a1ab4ceeef8d981c8956a66115e461226d565b6119dd565b61163e576040517f08c379a000000000000000000000000000000000000000000000000000000000815260040180806020018281038252603d815260200180614b0b603d913960400191505060405180910390fd5b6116528161164d61015f612a2c565b612a3a565b61165d61015f612c2e565b50565b6060609f8054600181600116156101000203166002900480601f0160208091040260200160405190810160405280929190818152602001828054600181600116156101000203166002900480156116f85780601f106116cd576101008083540402835291602001916116f8565b820191906000526020600020905b8154815290600101906020018083116116db57829003601f168201915b5050505050905090565b60008073ffffffffffffffffffffffffffffffffffffffff168273ffffffffffffffffffffffffffffffffffffffff161415611789576040517f08c379a000000000000000000000000000000000000000000000000000000000815260040180806020018281038252602a815260200180614992602a913960400191505060405180910390fd5b6117d0609760008473ffffffffffffffffffffffffffffffffffffffff1673ffffffffffffffffffffffffffffffffffffffff168152602001908152602001600020612c44565b9050919050565b6118087f65d7a28e3265b37a6474929f336521b332c1681b933f6cb9f3376673440d862a61180361226d565b6119dd565b61185d576040517f08c379a000000000000000000000000000000000000000000000000000000000815260040180806020018281038252603e815260200180614876603e913960400191505060405180910390fd5b611865612c59565b565b6060600061187483611702565b905060008114156118cf57600067ffffffffffffffff8111801561189757600080fd5b506040519080825280602002602001820160405280156118c65781602001602082028036833780820191505090505b509150506119a6565b60608167ffffffffffffffff811180156118e857600080fd5b506040519080825280602002602001820160405280156119175781602001602082028036833780820191505090505b5090506000611924611200565b90506000805b8281101561199d578673ffffffffffffffffffffffffffffffffffffffff1661195282611581565b73ffffffffffffffffffffffffffffffffffffffff161415611990578084838151811061197b57fe5b60200260200101818152505081806001019250505b808060010191505061192a565b83955050505050505b919050565b60006119d58260336000868152602001908152602001600020600001612d4590919063ffffffff16565b905092915050565b6000611a078260336000868152602001908152602001600020600001612d5f90919063ffffffff16565b905092915050565b6060609d8054600181600116156101000203166002900480601f016020809104026020016040519081016040528092919081815260200182805460018160011615610100020316600290048015611aa75780601f10611a7c57610100808354040283529160200191611aa7565b820191906000526020600020905b815481529060010190602001808311611a8a57829003601f168201915b5050505050905090565b6000801b81565b611ac061226d565b73ffffffffffffffffffffffffffffffffffffffff168273ffffffffffffffffffffffffffffffffffffffff161415611b61576040517f08c379a00000000000000000000000000000000000000000000000000000000081526004018080602001828103825260198152602001807f4552433732313a20617070726f766520746f2063616c6c65720000000000000081525060200191505060405180910390fd5b80609b6000611b6e61226d565b73ffffffffffffffffffffffffffffffffffffffff1673ffffffffffffffffffffffffffffffffffffffff16815260200190815260200160002060008473ffffffffffffffffffffffffffffffffffffffff1673ffffffffffffffffffffffffffffffffffffffff16815260200190815260200160002060006101000a81548160ff0219169083151502179055508173ffffffffffffffffffffffffffffffffffffffff16611c1b61226d565b73ffffffffffffffffffffffffffffffffffffffff167f17307eab39ab6107e8899845ad3d59bd9653f200f220920489ca2b5937696c318360405180821515815260200191505060405180910390a35050565b600060019054906101000a900460ff1680611c8d5750611c8c612d8f565b5b80611ca3575060008054906101000a900460ff16155b611cf8576040517f08c379a000000000000000000000000000000000000000000000000000000000815260040180806020018281038252602e8152602001806149e5602e913960400191505060405180910390fd5b60008060019054906101000a900460ff161590508015611d48576001600060016101000a81548160ff02191690831515021790555060016000806101000a81548160ff0219169083151502179055505b611d53848484612da0565b8015611d745760008060016101000a81548160ff0219169083151502179055505b50505050565b611d8b611d8561226d565b83612343565b611de0576040517f08c379a0000000000000000000000000000000000000000000000000000000008152600401808060200182810382526031815260200180614ada6031913960400191505060405180910390fd5b611dec84848484612ee6565b50505050565b6060611dfd82612250565b611e52576040517f08c379a000000000000000000000000000000000000000000000000000000000815260040180806020018281038252602f815260200180614a8a602f913960400191505060405180910390fd5b6060609e60008481526020019081526020016000208054600181600116156101000203166002900480601f016020809104026020016040519081016040528092919081815260200182805460018160011615610100020316600290048015611efb5780601f10611ed057610100808354040283529160200191611efb565b820191906000526020600020905b815481529060010190602001808311611ede57829003601f168201915b505050505090506060611f0c611660565b9050600081511415611f225781925050506120be565b600082511115611ff35780826040516020018083805190602001908083835b60208310611f645780518252602082019150602081019050602083039250611f41565b6001836020036101000a03801982511681845116808217855250505050505090500182805190602001908083835b60208310611fb55780518252602082019150602081019050602083039250611f92565b6001836020036101000a03801982511681845116808217855250505050505090500192505050604051602081830303815290604052925050506120be565b80611ffd85612f58565b6040516020018083805190602001908083835b602083106120335780518252602082019150602081019050602083039250612010565b6001836020036101000a03801982511681845116808217855250505050505090500182805190602001908083835b602083106120845780518252602082019150602081019050602083039250612061565b6001836020036101000a03801982511681845116808217855250505050505090500192505050604051602081830303815290604052925050505b919050565b60006120e36033600084815260200190815260200160002060000161309f565b9050919050565b7f9f2df0fed2c77648de5860a4cc508cd0818c85b8b8a1ab4ceeef8d981c8956a681565b612135603360008481526020019081526020016000206002015461213061226d565b6119dd565b61218a576040517f08c379a000000000000000000000000000000000000000000000000000000000815260040180806020018281038252603081526020018061492a6030913960400191505060405180910390fd5b6121948282612728565b5050565b7f65d7a28e3265b37a6474929f336521b332c1681b933f6cb9f3376673440d862a81565b6000609b60008473ffffffffffffffffffffffffffffffffffffffff1673ffffffffffffffffffffffffffffffffffffffff16815260200190815260200160002060008373ffffffffffffffffffffffffffffffffffffffff1673ffffffffffffffffffffffffffffffffffffffff16815260200190815260200160002060009054906101000a900460ff16905092915050565b60006122668260986130b490919063ffffffff16565b9050919050565b600033905090565b81609a600083815260200190815260200160002060006101000a81548173ffffffffffffffffffffffffffffffffffffffff021916908373ffffffffffffffffffffffffffffffffffffffff160217905550808273ffffffffffffffffffffffffffffffffffffffff166122e883611581565b73ffffffffffffffffffffffffffffffffffffffff167f8c5be1e5ebec7d5bd14f71427d1e84f3dd0314c0f7b2291e5b200ac8c7c3b92560405160405180910390a45050565b600061233c826000016130ce565b9050919050565b600061234e82612250565b6123a3576040517f08c379a000000000000000000000000000000000000000000000000000000000815260040180806020018281038252602c8152602001806148fe602c913960400191505060405180910390fd5b60006123ae83611581565b90508073ffffffffffffffffffffffffffffffffffffffff168473ffffffffffffffffffffffffffffffffffffffff16148061241d57508373ffffffffffffffffffffffffffffffffffffffff1661240584611021565b73ffffffffffffffffffffffffffffffffffffffff16145b8061242e575061242d81856121bc565b5b91505092915050565b8273ffffffffffffffffffffffffffffffffffffffff1661245782611581565b73ffffffffffffffffffffffffffffffffffffffff16146124c3576040517f08c379a0000000000000000000000000000000000000000000000000000000008152600401808060200182810382526029815260200180614a616029913960400191505060405180910390fd5b600073ffffffffffffffffffffffffffffffffffffffff168273ffffffffffffffffffffffffffffffffffffffff161415612549576040517f08c379a00000000000000000000000000000000000000000000000000000000081526004018080602001828103825260248152602001806148b46024913960400191505060405180910390fd5b6125548383836130df565b61255f600082612275565b6125b081609760008673ffffffffffffffffffffffffffffffffffffffff1673ffffffffffffffffffffffffffffffffffffffff1681526020019081526020016000206130ef90919063ffffffff16565b5061260281609760008573ffffffffffffffffffffffffffffffffffffffff1673ffffffffffffffffffffffffffffffffffffffff16815260200190815260200160002061310990919063ffffffff16565b50612619818360986131239092919063ffffffff16565b50808273ffffffffffffffffffffffffffffffffffffffff168473ffffffffffffffffffffffffffffffffffffffff167fddf252ad1be2c89b69c2b068fc378daa952ba7f163c4a11628f55a4df523b3ef60405160405180910390a4505050565b6126a2816033600085815260200190815260200160002060000161315890919063ffffffff16565b1561270a576126af61226d565b73ffffffffffffffffffffffffffffffffffffffff168173ffffffffffffffffffffffffffffffffffffffff16837f2f8788117e7eff1d82e926ec794901d17c78024a50270940304540a733656f0d60405160405180910390a45b5050565b600061271d8360000183613188565b60001c905092915050565b612750816033600085815260200190815260200160002060000161320b90919063ffffffff16565b156127b85761275d61226d565b73ffffffffffffffffffffffffffffffffffffffff168173ffffffffffffffffffffffffffffffffffffffff16837ff6391f5c32d9c69d2a47ea670b442974b53935d1edc7fd64eb21e047a839171b60405160405180910390a45b5050565b6127c461156a565b612836576040517f08c379a00000000000000000000000000000000000000000000000000000000081526004018080602001828103825260148152602001807f5061757361626c653a206e6f742070617573656400000000000000000000000081525060200191505060405180910390fd5b600060fb60006101000a81548160ff0219169083151502179055507f5db9ee0a495bf2e6ff9c91a7834c1ba4fdd244a5e8aa4e537bd38aeae4b073aa61287a61226d565b604051808273ffffffffffffffffffffffffffffffffffffffff16815260200191505060405180910390a1565b60006128b282611581565b90506128c0816000846130df565b6128cb600083612275565b6000609e60008481526020019081526020016000208054600181600116156101000203166002900490501461291a57609e6000838152602001908152602001600020600061291991906146e2565b5b61296b82609760008473ffffffffffffffffffffffffffffffffffffffff1673ffffffffffffffffffffffffffffffffffffffff1681526020019081526020016000206130ef90919063ffffffff16565b5061298082609861323b90919063ffffffff16565b5081600073ffffffffffffffffffffffffffffffffffffffff168273ffffffffffffffffffffffffffffffffffffffff167fddf252ad1be2c89b69c2b068fc378daa952ba7f163c4a11628f55a4df523b3ef60405160405180910390a45050565b6000806000806129f48660000186613255565b915091508160001c8160001c9350935050509250929050565b6000612a20846000018460001b846132ee565b60001c90509392505050565b600081600001549050919050565b600073ffffffffffffffffffffffffffffffffffffffff168273ffffffffffffffffffffffffffffffffffffffff161415612add576040517f08c379a00000000000000000000000000000000000000000000000000000000081526004018080602001828103825260208152602001807f4552433732313a206d696e7420746f20746865207a65726f206164647265737381525060200191505060405180910390fd5b612ae681612250565b15612b59576040517f08c379a000000000000000000000000000000000000000000000000000000000815260040180806020018281038252601c8152602001807f4552433732313a20746f6b656e20616c7265616479206d696e7465640000000081525060200191505060405180910390fd5b612b65600083836130df565b612bb681609760008573ffffffffffffffffffffffffffffffffffffffff1673ffffffffffffffffffffffffffffffffffffffff16815260200190815260200160002061310990919063ffffffff16565b50612bcd818360986131239092919063ffffffff16565b50808273ffffffffffffffffffffffffffffffffffffffff16600073ffffffffffffffffffffffffffffffffffffffff167fddf252ad1be2c89b69c2b068fc378daa952ba7f163c4a11628f55a4df523b3ef60405160405180910390a45050565b6001816000016000828254019250508190555050565b6000612c52826000016133e4565b9050919050565b612c6161156a565b15612cd4576040517f08c379a00000000000000000000000000000000000000000000000000000000081526004018080602001828103825260108152602001807f5061757361626c653a207061757365640000000000000000000000000000000081525060200191505060405180910390fd5b600160fb60006101000a81548160ff0219169083151502179055507f62e78cea01bee320cd4e420270b5ea74000d11b0c9f74754ebdbfc544b05a258612d1861226d565b604051808273ffffffffffffffffffffffffffffffffffffffff16815260200191505060405180910390a1565b6000612d548360000183613188565b60001c905092915050565b6000612d87836000018373ffffffffffffffffffffffffffffffffffffffff1660001b6133f5565b905092915050565b6000612d9a30613418565b15905090565b600060019054906101000a900460ff1680612dbf5750612dbe612d8f565b5b80612dd5575060008054906101000a900460ff16155b612e2a576040517f08c379a000000000000000000000000000000000000000000000000000000000815260040180806020018281038252602e8152602001806149e5602e913960400191505060405180910390fd5b60008060019054906101000a900460ff161590508015612e7a576001600060016101000a81548160ff02191690831515021790555060016000806101000a81548160ff0219169083151502179055505b612e8261342b565b612e8a613529565b612e92613627565b612e9c8484613735565b612ea4613893565b612eac613991565b612eb4613aaa565b612ebf848484613ba8565b8015612ee05760008060016101000a81548160ff0219169083151502179055505b50505050565b612ef1848484612437565b612efd84848484613d28565b612f52576040517f08c379a00000000000000000000000000000000000000000000000000000000081526004018080602001828103825260328152602001806148446032913960400191505060405180910390fd5b50505050565b60606000821415612fa0576040518060400160405280600181526020017f3000000000000000000000000000000000000000000000000000000000000000815250905061309a565b600082905060005b60008214612fca578080600101915050600a8281612fc257fe5b049150612fa8565b60608167ffffffffffffffff81118015612fe357600080fd5b506040519080825280601f01601f1916602001820160405280156130165781602001600182028036833780820191505090505b50905060006001830390508593505b6000841461309257600a848161303757fe5b0660300160f81b8282806001900393508151811061305157fe5b60200101907effffffffffffffffffffffffffffffffffffffffffffffffffffffffffffff1916908160001a905350600a848161308a57fe5b049350613025565b819450505050505b919050565b60006130ad826000016133e4565b9050919050565b60006130c6836000018360001b613f41565b905092915050565b600081600001805490509050919050565b6130ea838383613f64565b505050565b6000613101836000018360001b613fd2565b905092915050565b600061311b836000018360001b6140ba565b905092915050565b600061314f846000018460001b8473ffffffffffffffffffffffffffffffffffffffff1660001b61412a565b90509392505050565b6000613180836000018373ffffffffffffffffffffffffffffffffffffffff1660001b6140ba565b905092915050565b6000818360000180549050116131e9576040517f08c379a00000000000000000000000000000000000000000000000000000000081526004018080602001828103825260228152602001806147c86022913960400191505060405180910390fd5b8260000182815481106131f857fe5b9060005260206000200154905092915050565b6000613233836000018373ffffffffffffffffffffffffffffffffffffffff1660001b613fd2565b905092915050565b600061324d836000018360001b614206565b905092915050565b600080828460000180549050116132b7576040517f08c379a0000000000000000000000000000000000000000000000000000000008152600401808060200182810382526022815260200180614a136022913960400191505060405180910390fd5b60008460000184815481106132c857fe5b906000526020600020906002020190508060000154816001015492509250509250929050565b600080846001016000858152602001908152602001600020549050600081141583906133b5576040517f08c379a00000000000000000000000000000000000000000000000000000000081526004018080602001828103825283818151815260200191508051906020019080838360005b8381101561337a57808201518184015260208101905061335f565b50505050905090810190601f1680156133a75780820380516001836020036101000a031916815260200191505b509250505060405180910390fd5b508460000160018203815481106133c857fe5b9060005260206000209060020201600101549150509392505050565b600081600001805490509050919050565b600080836001016000848152602001908152602001600020541415905092915050565b600080823b905060008111915050919050565b600060019054906101000a900460ff168061344a5750613449612d8f565b5b80613460575060008054906101000a900460ff16155b6134b5576040517f08c379a000000000000000000000000000000000000000000000000000000000815260040180806020018281038252602e8152602001806149e5602e913960400191505060405180910390fd5b60008060019054906101000a900460ff161590508015613505576001600060016101000a81548160ff02191690831515021790555060016000806101000a81548160ff0219169083151502179055505b80156135265760008060016101000a81548160ff0219169083151502179055505b50565b600060019054906101000a900460ff16806135485750613547612d8f565b5b8061355e575060008054906101000a900460ff16155b6135b3576040517f08c379a000000000000000000000000000000000000000000000000000000000815260040180806020018281038252602e8152602001806149e5602e913960400191505060405180910390fd5b60008060019054906101000a900460ff161590508015613603576001600060016101000a81548160ff02191690831515021790555060016000806101000a81548160ff0219169083151502179055505b80156136245760008060016101000a81548160ff0219169083151502179055505b50565b600060019054906101000a900460ff16806136465750613645612d8f565b5b8061365c575060008054906101000a900460ff16155b6136b1576040517f08c379a000000000000000000000000000000000000000000000000000000000815260040180806020018281038252602e8152602001806149e5602e913960400191505060405180910390fd5b60008060019054906101000a900460ff161590508015613701576001600060016101000a81548160ff02191690831515021790555060016000806101000a81548160ff0219169083151502179055505b6137116301ffc9a760e01b61431f565b80156137325760008060016101000a81548160ff0219169083151502179055505b50565b600060019054906101000a900460ff16806137545750613753612d8f565b5b8061376a575060008054906101000a900460ff16155b6137bf576040517f08c379a000000000000000000000000000000000000000000000000000000000815260040180806020018281038252602e8152602001806149e5602e913960400191505060405180910390fd5b60008060019054906101000a900460ff16159050801561380f576001600060016101000a81548160ff02191690831515021790555060016000806101000a81548160ff0219169083151502179055505b82609c908051906020019061382592919061472a565b5081609d908051906020019061383c92919061472a565b5061384d6380ac58cd60e01b61431f565b61385d635b5e139f60e01b61431f565b61386d63780e9d6360e01b61431f565b801561388e5760008060016101000a81548160ff0219169083151502179055505b505050565b600060019054906101000a900460ff16806138b257506138b1612d8f565b5b806138c8575060008054906101000a900460ff16155b61391d576040517f08c379a000000000000000000000000000000000000000000000000000000000815260040180806020018281038252602e8152602001806149e5602e913960400191505060405180910390fd5b60008060019054906101000a900460ff16159050801561396d576001600060016101000a81548160ff02191690831515021790555060016000806101000a81548160ff0219169083151502179055505b801561398e5760008060016101000a81548160ff0219169083151502179055505b50565b600060019054906101000a900460ff16806139b057506139af612d8f565b5b806139c6575060008054906101000a900460ff16155b613a1b576040517f08c379a000000000000000000000000000000000000000000000000000000000815260040180806020018281038252602e8152602001806149e5602e913960400191505060405180910390fd5b60008060019054906101000a900460ff161590508015613a6b576001600060016101000a81548160ff02191690831515021790555060016000806101000a81548160ff0219169083151502179055505b600060fb60006101000a81548160ff0219169083151502179055508015613aa75760008060016101000a81548160ff0219169083151502179055505b50565b600060019054906101000a900460ff1680613ac95750613ac8612d8f565b5b80613adf575060008054906101000a900460ff16155b613b34576040517f08c379a000000000000000000000000000000000000000000000000000000000815260040180806020018281038252602e8152602001806149e5602e913960400191505060405180910390fd5b60008060019054906101000a900460ff161590508015613b84576001600060016101000a81548160ff02191690831515021790555060016000806101000a81548160ff0219169083151502179055505b8015613ba55760008060016101000a81548160ff0219169083151502179055505b50565b600060019054906101000a900460ff1680613bc75750613bc6612d8f565b5b80613bdd575060008054906101000a900460ff16155b613c32576040517f08c379a000000000000000000000000000000000000000000000000000000000815260040180806020018281038252602e8152602001806149e5602e913960400191505060405180910390fd5b60008060019054906101000a900460ff161590508015613c82576001600060016101000a81548160ff02191690831515021790555060016000806101000a81548160ff0219169083151502179055505b613c966000801b613c9161226d565b614428565b613cc77f9f2df0fed2c77648de5860a4cc508cd0818c85b8b8a1ab4ceeef8d981c8956a6613cc261226d565b614428565b613cf87f65d7a28e3265b37a6474929f336521b332c1681b933f6cb9f3376673440d862a613cf361226d565b614428565b613d0182614436565b8015613d225760008060016101000a81548160ff0219169083151502179055505b50505050565b6000613d498473ffffffffffffffffffffffffffffffffffffffff16613418565b613d565760019050613f39565b6060613ec063150b7a0260e01b613d6b61226d565b888787604051602401808573ffffffffffffffffffffffffffffffffffffffff1681526020018473ffffffffffffffffffffffffffffffffffffffff16815260200183815260200180602001828103825283818151815260200191508051906020019080838360005b83811015613def578082015181840152602081019050613dd4565b50505050905090810190601f168015613e1c5780820380516001836020036101000a031916815260200191505b5095505050505050604051602081830303815290604052907bffffffffffffffffffffffffffffffffffffffffffffffffffffffff19166020820180517bffffffffffffffffffffffffffffffffffffffffffffffffffffffff8381831617835250505050604051806060016040528060328152602001614844603291398773ffffffffffffffffffffffffffffffffffffffff166144509092919063ffffffff16565b90506000818060200190516020811015613ed957600080fd5b8101908080519060200190929190505050905063150b7a0260e01b7bffffffffffffffffffffffffffffffffffffffffffffffffffffffff1916817bffffffffffffffffffffffffffffffffffffffffffffffffffffffff191614925050505b949350505050565b600080836001016000848152602001908152602001600020541415905092915050565b613f6f838383614468565b613f7761156a565b15613fcd576040517f08c379a000000000000000000000000000000000000000000000000000000000815260040180806020018281038252602b8152602001806147ea602b913960400191505060405180910390fd5b505050565b600080836001016000848152602001908152602001600020549050600081146140ae576000600182039050600060018660000180549050039050600086600001828154811061401d57fe5b906000526020600020015490508087600001848154811061403a57fe5b906000526020600020018190555060018301876001016000838152602001908152602001600020819055508660000180548061407257fe5b600190038181906000526020600020016000905590558660010160008781526020019081526020016000206000905560019450505050506140b4565b60009150505b92915050565b60006140c683836133f5565b61411f578260000182908060018154018082558091505060019003906000526020600020016000909190919091505582600001805490508360010160008481526020019081526020016000208190555060019050614124565b600090505b92915050565b60008084600101600085815260200190815260200160002054905060008114156141d1578460000160405180604001604052808681526020018581525090806001815401808255809150506001900390600052602060002090600202016000909190919091506000820151816000015560208201518160010155505084600001805490508560010160008681526020019081526020016000208190555060019150506141ff565b828560000160018303815481106141e457fe5b90600052602060002090600202016001018190555060009150505b9392505050565b60008083600101600084815260200190815260200160002054905060008114614313576000600182039050600060018660000180549050039050600086600001828154811061425157fe5b906000526020600020906002020190508087600001848154811061427157fe5b90600052602060002090600202016000820154816000015560018201548160010155905050600183018760010160008360000154815260200190815260200160002081905550866000018054806142c457fe5b6001900381819060005260206000209060020201600080820160009055600182016000905550509055866001016000878152602001908152602001600020600090556001945050505050614319565b60009150505b92915050565b63ffffffff60e01b817bffffffffffffffffffffffffffffffffffffffffffffffffffffffff191614156143bb576040517f08c379a000000000000000000000000000000000000000000000000000000000815260040180806020018281038252601c8152602001807f4552433136353a20696e76616c696420696e746572666163652069640000000081525060200191505060405180910390fd5b600160656000837bffffffffffffffffffffffffffffffffffffffffffffffffffffffff19167bffffffffffffffffffffffffffffffffffffffffffffffffffffffff1916815260200190815260200160002060006101000a81548160ff02191690831515021790555050565b614432828261267a565b5050565b80609f908051906020019061444c92919061472a565b5050565b606061445f848460008561446d565b90509392505050565b505050565b6060824710156144c8576040517f08c379a00000000000000000000000000000000000000000000000000000000081526004018080602001828103825260268152602001806148d86026913960400191505060405180910390fd5b6144d185613418565b614543576040517f08c379a000000000000000000000000000000000000000000000000000000000815260040180806020018281038252601d8152602001807f416464726573733a2063616c6c20746f206e6f6e2d636f6e747261637400000081525060200191505060405180910390fd5b600060608673ffffffffffffffffffffffffffffffffffffffff1685876040518082805190602001908083835b602083106145935780518252602082019150602081019050602083039250614570565b6001836020036101000a03801982511681845116808217855250505050505090500191505060006040518083038185875af1925050503d80600081146145f5576040519150601f19603f3d011682016040523d82523d6000602084013e6145fa565b606091505b509150915061460a828286614616565b92505050949350505050565b60608315614626578290506146db565b6000835111156146395782518084602001fd5b816040517f08c379a00000000000000000000000000000000000000000000000000000000081526004018080602001828103825283818151815260200191508051906020019080838360005b838110156146a0578082015181840152602081019050614685565b50505050905090810190601f1680156146cd5780820380516001836020036101000a031916815260200191505b509250505060405180910390fd5b9392505050565b50805460018160011615610100020316600290046000825580601f106147085750614727565b601f01602090049060005260206000209081019061472691906147aa565b5b50565b828054600181600116156101000203166002900490600052602060002090601f016020900481019282601f1061476b57805160ff1916838001178555614799565b82800160010185558215614799579182015b8281111561479857825182559160200191906001019061477d565b5b5090506147a691906147aa565b5090565b5b808211156147c35760008160009055506001016147ab565b509056fe456e756d657261626c655365743a20696e646578206f7574206f6620626f756e64734552433732315061757361626c653a20746f6b656e207472616e73666572207768696c6520706175736564416363657373436f6e74726f6c3a2073656e646572206d75737420626520616e2061646d696e20746f206772616e744552433732313a207472616e7366657220746f206e6f6e20455243373231526563656976657220696d706c656d656e7465724552433732315072657365744d696e7465725061757365724175746f49643a206d75737420686176652070617573657220726f6c6520746f2070617573654552433732313a207472616e7366657220746f20746865207a65726f2061646472657373416464726573733a20696e73756666696369656e742062616c616e636520666f722063616c6c4552433732313a206f70657261746f7220717565727920666f72206e6f6e6578697374656e7420746f6b656e416363657373436f6e74726f6c3a2073656e646572206d75737420626520616e2061646d696e20746f207265766f6b654552433732313a20617070726f76652063616c6c6572206973206e6f74206f776e6572206e6f7220617070726f76656420666f7220616c6c4552433732313a2062616c616e636520717565727920666f7220746865207a65726f20616464726573734552433732313a206f776e657220717565727920666f72206e6f6e6578697374656e7420746f6b656e496e697469616c697a61626c653a20636f6e747261637420697320616c726561647920696e697469616c697a6564456e756d657261626c654d61703a20696e646578206f7574206f6620626f756e64734552433732313a20617070726f76656420717565727920666f72206e6f6e6578697374656e7420746f6b656e4552433732313a207472616e73666572206f6620746f6b656e2074686174206973206e6f74206f776e4552433732314d657461646174613a2055524920717565727920666f72206e6f6e6578697374656e7420746f6b656e4552433732313a20617070726f76616c20746f2063757272656e74206f776e65724552433732313a207472616e736665722063616c6c6572206973206e6f74206f776e6572206e6f7220617070726f7665644552433732315072657365744d696e7465725061757365724175746f49643a206d7573742068617665206d696e74657220726f6c6520746f206d696e744552433732314275726e61626c653a2063616c6c6572206973206e6f74206f776e6572206e6f7220617070726f7665644552433732315072657365744d696e7465725061757365724175746f49643a206d75737420686176652070617573657220726f6c6520746f20756e7061757365416363657373436f6e74726f6c3a2063616e206f6e6c792072656e6f756e636520726f6c657320666f722073656c66a26469706673582212207a19ad48f7acc7a32d2e9e39808a99541974d945e239ca6b737b4b6ba79dc30064736f6c63430007030033",
  "linkReferences": {},
  "deployedLinkReferences": {}
}